:02000000172ABD
:10000800FF00030E8301B1000A08B0008A010C1C2E
:100018001828A90A0319AA0A0C1083160C143C30D4
:1000280083128F00B0308E0030088A00310E8300B2
:06003800FF0E7F0E09001F
:10003E0083120313FB01FA01F9018030F800F10C71
:10004E00F00C031C33287408F90775080318750F94
:10005E00FA070318FB0A0310F01F3B287408FA076F
:10006E0075080318750FFB07FB0CFA0CF90CF80C4E
:10007E00031C26287B08F3007A08F2007908F100A9
:06008E007808F0000800F4
:0E009400831203132D088A002C088200080036
:1000A200831603131208013EF000F1010318F10A4E
:1000B20083123808F400F5011F200630F2007008A0
:1000C200F4007108F500720803196C28F50CF40CA1
:1000D200F513FF3E65280430F1007408F000710842
:1000E20003197728F00D7010FF3E71288312031355
:1000F20030307005F3007408F0007508F100F10C5F
:10010200F00CF113F10CF00CF113700895000F30A4
:0801120097057308970408002B
:10011A0083120313F8010830FC00700DF80D7408FF
:10012A00F80203189A28F8070310F00DFC0B92281E
:02013A000800BB
:0C013C008312031395011712971208009C
:10014800023083120313FC009C30FD00FD0BAA282B
:0A015800FC0BAA28000000000800BC
:10016200831203132408003C0318E6282408003AEB
:10017200031DBE28A601A501CE280A30F4002408DA
:10018200F0008D207008A6000A30F4002408F00068
:100192008D207808F0007008A5002108003A031DA0
:1001A200D528A001A301E5280A30F4002108F000B7
:1001B2008D207008A0000A30F4002108F0008D2084
:1001C2007808F0007008A30014292108003A031DE2
:1001D200ED28A601A501FD280A30F4002108F0004F
:1001E2008D207008A6000A30F4002108F0008D204E
:1001F2007808F0007008A5002208003A031D0429BF
:10020200A001A30114290A30F4002208F0008D2075
:100212007008A0000A30F4002208F0008D2078084F
:10022200F0007008A300FF308600FF308700FF3027
:1002320088001030FD00FD0B1C2900002508093A3A
:10024200031D2529A5012B292508003A031D2B2969
:100252000930A5002308093A031D3129A3013729D2
:100262002308003A031D37290930A3002308403E22
:10027200F00003300318013EF1007008AC00710871
:10028200AD004A208A110A12F2000430F10072080D
:10029200F000710803195129F00D7010FF3E4B292F
:1002A200700887002008403EF00003300318013E2A
:1002B200F1007008AC007108AD004A208A110A12E0
:1002C200F2000430F1007208F000710803196D2980
:1002D200F00D7010FF3E6729700888002608403E26
:1002E200F00003300318013EF1007008AC00710801
:1002F200AD004A208A110A12F1000430F0007108A0
:10030200F200700803198929F20D7210FF3E832949
:100312002508403EF00003300318013EF10070084A
:10032200AC007108AD004A208A110A12F000700870
:06033200720486000800C1
:1003380083120313121492144E30831692009E20D7
:080348004630B8005120080006
:10035000831603130711831212150C30970408003B
:100360008312031390121012901510159010101490
:100370003C308F00B0308E008B018B120C10831636
:100380000C140B118B170B17093083128600903059
:060390008700880108004F
:1003960083160313071583121211F0309705080010
:1003A6004A208A110A128000840AAC0A0319AD0A8F
:0803B600F003031DD329080028
:1003BE0083120313B7013308F1000130F000710806
:1003CE000319ED29F00D7010FF3EE7297008B600F5
:1003DE00320884000008F00570080130031D00305B
:1003EE00F0003508F0060319142A3408003C0318EF
:1003FE00042AA420A420B403FC2932088400360861
:10040E000005F00070080130031D0030F0003508C3
:10041E00F0060319142AFF30B7003708F000080061
:10042E0083120313A001A101A201A301A401A5013E
:10043E00A601A701A801A901AA01AB018316031702
:10044E0088018901831287138813FF3083160313E3
:10045E00850086010F3087000F308800B0210530EF
:10046E00B200B3010130B4000130B500DF217008D5
:10047E000319432A0130A80028080319682A0530F9
:10048E00B200B3010130B400B501DF2170080319C9
:10049E00682A22083B3A031D5C2A21083B3A031DB9
:1004AE005C2AA201A101A40A642A22083B3A031D78
:1004BE00632AA201A10A642AA20AA8010130A70098
:1004CE00B1200530B2000130B3000130B40001306C
:1004DE00B500DF2170080319762A0130AB002B0816
:1004EE000319902A0530B2000130B3000130B40078
:1004FE00B501DF2170080319902A21083B3A031D2C
:10050E008B2AA101A40A8C2AA10AAB010130A700F3
:10051E00B12000302A02031D962A32302902031C14
:10052E003E2BA901AA012208003A031D1E2B210809
:10053E00003A031D1E2B2408003A031D1E2B27080C
:10054E00013A031D1D2B9C21AF010A302F02031807
:10055E001B2BAE012E08053C031CEC2AA821933060
:10056E00FC001930FD00FD0BBA2AFC0BBA2ACB2178
:10057E007230FC00A130FD00FD0BC32AFC0BC32A18
:10058E0000000000AE0A0530B2000130B3000130A9
:10059E00B4000130B500DF2170080319D82A0130EC
:1005AE00AB002B080319EB2A0530B2000130B30063
:1005BE000130B400B501DF2170080319EB2A0630B3
:1005CE00AE000B30AF00AB01B12A0730FB00583044
:1005DE00FC005930FD00FD0BF22AFC0BF22AFB0B3E
:1005EE00F22A000000000530B2000130B3000130E5
:1005FE00B4000130B500DF2170080319082B01305B
:10060E00AB002B080319192B0530B2000130B300D3
:10061E000130B400B501DF2170080319192B0B301E
:10062E00AF00AB01AF0AAC2AA701B0213D2B2208C7
:10063E00003A031D302B2108003A031D302B2408ED
:10064E00003C0318302BA4033B30A1003B30A2002A
:10065E003D2B2208003A031D3C2B2108003C0318B9
:10066E003C2BA1033B30A2003D2BA203B120362A26
:02067E003F2B10
:1006800000340134023403340434053406340734AE
:0406900008340934ED
:04400E00F22F000786
:00000001FF
