:020000006A2A6A
:10000800FF00030E8301B9000A08B8008A017008CE
:10001800A6007108A5007208A4007408A300780857
:10002800A2007C08A1007D08A0002908A7002A08D2
:10003800A8000C1C61280C1083160C143C30831289
:100048008F00B0308E00B20A0319B30A00303306AD
:10005800031D302832303206031D6128B201B30176
:100068002D08003C031C41282C08003C031C412897
:100078002F08003C031C412860282D08003A031D66
:1000880053282C08003A031D53282F08003C031856
:100098005328AF033B30AC003B30AD0060282D083F
:1000A800003A031D5F282C08003C03185F28AC03A6
:1000B8003B30AD006028AD030A212708A9002808B5
:1000C800AA002608F0002508F1002408F2002308F9
:1000D800F4002208F8002108FC002008FD00380878
:0C00E8008A00390E8300FF0E7F0E090015
:1000F40083120313FB01FA01F9018030F800F10CBB
:10010400F00C031C8E287408F90775080318750F82
:10011400FA070318FB0A0310F01F96287408FA075D
:1001240075080318750FFB07FB0CFA0CF90CF80C97
:10013400031C81287B08F3007A08F2007908F10097
:060144007808F00008003D
:0E014A00831203132A088A0029088200080085
:10015800831603131208013EF000F1010318F10A97
:1001680083124008F400F5017A200630F200700886
:10017800F4007108F50072080319C728F50CF40C8F
:10018800F513FF3EC0280430F1007408F000710830
:100198000319D228F00D7010FF3ECC2830307005BE
:1001A800F3007408F0007508F100F10CF00CF1137D
:1001B800F10CF00CF113700895000F3097057308D7
:0401C8009704080090
:1001CC0083120313F8010830FC00700DF80D74084D
:1001DC00F8020318F328F8070310F00DFC0BEB28BA
:0201EC00080009
:0C01EE00831203139501171297120800EA
:1001FA00023083120313FC009C30FD00FD0B03291F
:0A020A00FC0B0329000000000800AF
:10021400831203132F08003C031838290A30F40012
:100224002F08F000E6207008B1000A30F4002F080F
:10023400F000E6207808F0007008B0002C08003ABE
:10024400031D2729AB01AE0137290A30F4002C081D
:10025400F000E6207008AB000A30F4002C08F0002F
:10026400E6207808F0007008AE0066292C08003AF1
:10027400031D3F29B101B0014F290A30F4002C08B5
:10028400F000E6207008B1000A30F4002C08F000F9
:10029400E6207808F0007008B0002D08003A031D2D
:1002A4005629AB01AE0166290A30F4002D08F0008E
:1002B400E6207008AB000A30F4002D08F000E620B8
:1002C4007808F0007008AE00FF308600FF30870029
:1002D400FF3088001030FD00FD0B6E29000030084F
:1002E400093A031D7729B0017D293008003A031D1E
:1002F4007D290930B0002E08093A031D8329AE0177
:1003040089292E08003A031D89290930AE002E08D8
:10031400353EF00003300318013EF1007008A900D7
:100324007108AA00A5208A110A12F2000430F10013
:100334007208F00071080319A329F00D7010FF3E34
:100344009D29700887002B08353EF0000330031800
:10035400013EF1007008A9007108AA00A5208A11C5
:100364000A12F2000430F1007208F0007108031957
:10037400BF29F00D7010FF3EB929700888003108BC
:10038400353EF00003300318013EF1007008A90067
:100394007108AA00A5208A110A12F1000430F000A5
:1003A4007108F20070080319DB29F20D7210FF3E88
:1003B400D5293008353EF00003300318013EF10022
:1003C4007008A9007108AA00A5208A110A12F00079
:0803D4007008720486000800A5
:1003DC0083120313121492144E3083169200F720DA
:0803EC004630C000AC200800FF
:1003F400831603130711831212150C309704080097
:1004040083120313901210129015101590101014EB
:100414003C308F00B0308E008B018B120C10831691
:100424000C140B118B170B170930831286009030B4
:06043400870088010800AA
:10043A0083160313071583121211F030970508006B
:10044A00A5208A110A128000840AA90A0319AA0A95
:08045A00F003031D252A080030
:1004620083120313BF013B08F1000130F000710851
:1004720003193F2AF00D7010FF3E392A7008BE00A2
:100482003A08840070080005F10071080130031D6C
:100492000030F0003D08F0060319672A3C08003CD2
:1004A2000318572AFD20FD20BC034F2A3A08840076
:1004B2003E080005F10071080130031D0030F00014
:1004C2003D08F0060319672AFF30BF003F08F0001D
:0204D200080020
:1004D40083120313AB01AC01AD01AE01AF01B00156
:1004E400B101B201B301B401B50183160317880148
:1004F4008901831287138813FF3083160313850041
:1005040086010F3087000F30880002220530BA00C0
:100514000130BB000130BC000130BD003122700845
:100524000319962A0130B40034080319B02A05309F
:10053400BA000130BB000130BC00BD01312270089B
:100544000319B02A2C083B3A031DAB2AAC01AF0AAD
:10055400AC2AAC0AB4010130B5000A212D08003AD6
:10056400031D332B2C08003A031D332B2F08003AAC
:10057400031D332B3508013A031D332BEE21B7013C
:100584000A3037020318312BB6013608053C031C28
:10059400022BFA219330FC001930FD00FD0BD02A08
:1005A400FC0BD02A1D227230FC00A130FD00FD0B93
:1005B400D92AFC0BD92A00000000B60A0530BA007B
:1005C4000130BB000130BC000130BD003122700895
:1005D4000319EE2A0130B40034080319012B053045
:1005E400BA000130BB000130BC00BD0131227008EB
:1005F4000319012B0630B6000B30B700B401C72A2B
:100604000730FB005830FC005930FD00FD0B082B6F
:10061400FC0B082BFB0B082B000000000530BA0074
:100624000130BB000130BC000130BD003122700834
:1006340003191E2B0130B400340803192F2B053085
:10064400BA000130BB000130BC00BD01312270088A
:1006540003192F2B0B30B700B401B70AC22AB50116
:060664000222882A342B5B
:10066A0000340134023403340434053406340734C4
:04067A000834093403
:04400E00F22F000786
:00000001FF
